:020000040000FA
:100000000C9435000C945D000C945D000C945D0024
:100010000C945D000C945D000C945D000C945D00EC
:100020000C945D000C945D000C945D000C945D00DC
:100030000C945D000C945D000C945D000C945D00CC
:100040000C945E010C945D000C947D030C94AF0342
:100050000C945D000C945F000C945D000C945D00AA
:100060000C945D000C945D00DF0311241FBECFEFE4
:10007000D8E0DEBFCDBF11E0A0E0B1E0EEECFAE0E9
:1000800002C005900D92AA33B107D9F721E0AAE387
:10009000B1E001C01D92A33FB207E1F710E0C5E354
:1000A000D0E004C02197FE010E945F05C433D10750
:1000B000C9F70E94FF040C9465050C9400001F9280
:1000C0000F920FB60F9211248F939F93EF93FF938C
:1000D00080914C01893080F4909178008091790072
:1000E000E0914C01F0E0892798278927EE0FFF1F48
:1000F000E65CFE4F9183808380914C018F5F8093FB
:100100004C01FF91EF919F918F910F900FBE0F9037
:100110001F9018950F931F93CF93DF9380917A00D0
:10012000886880937A0010924C0180914C0189304C
:1001300068F483B7817F826083BF83B7816083BFA8
:100140007894889583B78E7F83BFEFCF87E18093C4
:100150007A0060E071E086E591E00E9448046091D9
:100160003A0170913B014AE050E086E591E00E943F
:10017000F8046AE071E086E591E00E94480401E03D
:1001800010E0D0E0C0E0F801EE0FFF1FE65CFE4F8C
:1001900080819181C80FD91F608171814AE050E050
:1001A00086E591E00E94F80468E071E086E591E060
:1001B0000E9448040F5F1F4F0930110521F783E0AB
:1001C000D695C7958A95E1F76EE071E086E591E0F6
:1001D0000E9448044AE050E0BE0186E591E00E949A
:1001E000F80460E171E086E591E00E94480462E174
:1001F00071E086E591E00E944804CE01DF91CF9145
:100200001F910F91089587709927806C80937C00CF
:100210000E948A009C01ACE4B4E00E945005DC011D
:10022000CB012AE0B695A795979587952A95D1F7A2
:100230000895CF93DF9368EE73E080E090E00E9432
:10024000CD0181E090E00E940301EC0164E171E0E6
:1002500086E591E00E944804AE0170E060E02AE08B
:1002600030E086E591E00E94A3046CE171E086E550
:1002700091E00E9448049E01ABE8B0E10E94500565
:1002800028EE33E040E050E00E943105B9014AE039
:1002900050E086E591E00E94F80462E171E086E5B5
:1002A00091E0DF91CF910C94480426E040E052ECBD
:1002B00061E070E086E591E00C941B031F920F92C1
:1002C0000FB60F9211242F933F938F939F93AF9369
:1002D000BF9380914E0190914F01A0915001B09138
:1002E000510130914D0123E0230F2D3758F5019630
:1002F000A11DB11D20934D0180934E0190934F019C
:10030000A0935001B09351018091520190915301FB
:10031000A0915401B09155010196A11DB11D80938A
:10032000520190935301A0935401B0935501BF9192
:10033000AF919F918F913F912F910F900FBE0F9092
:100340001F90189526E8230F0296A11DB11DD2CF4C
:100350003FB7F8948091520190915301A0915401BC
:10036000B091550126B5A89B05C02F3F19F0019605
:10037000A11DB11D3FBFBA2FA92F982F8827BC01FF
:10038000CD01620F711D811D911D42E0660F771F27
:10039000881F991F4A95D1F708958F929F92AF9227
:1003A000BF92CF92DF92EF92FF926B017C010E948D
:1003B000A8014B015C01C114D104E104F104E9F08E
:1003C0000E940E050E94A801681979098A099B09F3
:1003D000683E73408105910570F321E0C21AD1088F
:1003E000E108F10888EE880E83E0981EA11CB11C7C
:1003F000C114D104E104F10429F7FF90EF90DF90DC
:10040000CF90BF90AF909F908F900895789484B5CF
:10041000826084BD84B5816084BD85B5826085BD00
:1004200085B5816085BDEEE6F0E0808181608083E6
:10043000E1E8F0E0108280818260808380818160C9
:100440008083E0E8F0E0808181608083E1EBF0E090
:10045000808184608083E0EBF0E080818160808334
:10046000EAE7F0E08081846080838081826080831D
:100470008081816080838081806880831092C10048
:100480000895FC01918D228D892F90E0805C9F4F13
:10049000821B91098F7399270895FC01918D828D9C
:1004A000981731F0828DE80FF11D858D90E0089549
:1004B0008FEF9FEF0895FC01918D828D981761F069
:1004C000A28DAE0FBF2FB11D5D968C91928D9F5F57
:1004D0009F73928F90E008958FEF9FEF0895FC0136
:1004E000538D448D252F30E0842F90E0821B930B99
:1004F000541710F0CF9608950197089585ED93E075
:10050000892B49F080E090E0892B29F00E94D503E7
:1005100081110C9400000895FC01A48DA80FB92F3F
:10052000B11DA35ABF4F2C91848D90E001968F731B
:100530009927848FA689B7892C93A089B1898C913A
:10054000837080648C93938D848D981306C0028889
:10055000F389E02D80818F7D80830895CF93DF9391
:10056000EC01888D8823B9F0AA89BB89E889F989CB
:100570008C9185FD03C0808186FD0DC00FB607FC00
:10058000F7CF8C9185FFF2CF808185FFEDCFCE0133
:100590000E948C02E9CFDF91CF910895EF92FF92F4
:1005A0000F931F93CF93DF93EC0181E0888F9B8D96
:1005B0008C8D98131AC0E889F989808185FF15C050
:1005C0009FB7F894EE89FF896083E889F989808173
:1005D0008370806480839FBF81E090E0DF91CF9142
:1005E0001F910F91FF90EF900895F62E0B8D10E064
:1005F0000F5F1F4F0F731127E02E8C8D8E110CC0D3
:100600000FB607FCFACFE889F989808185FFF5CF1D
:10061000CE010E948C02F1CFEB8DEC0FFD2FF11D6E
:10062000E35AFF4FF0829FB7F8940B8FEA89FB895A
:1006300080818062CFCFCF92DF92EF92FF921F93A3
:10064000CF93DF93EC016A017B01122FE889F989CE
:1006500082E08083C11481EED806E104F104A1F0A8
:1006600060E079E08DE390E0A70196010E940F051C
:1006700021503109410951095695479537952795DC
:10068000211580E1380798F0E889F989108260E83F
:1006900074E88EE190E0A70196010E940F052150B9
:1006A0003109410951095695479537952795EC85AC
:1006B000FD853083EE85FF852083188EEC89FD89CA
:1006C0001083EA89FB89808180618083EA89FB89C4
:1006D000808188608083EA89FB898081806880834B
:1006E000EA89FB8980818F7D8083DF91CF911F9183
:1006F000FF90EF90DF90CF9008951F920F920FB66A
:100700000F9211242F938F939F93EF93FF93E09178
:100710006601F09167018081E0916C01F0916D01BB
:1007200082FD1BC0908180916F018F5F8F7320913C
:100730007001821741F0E0916F01F0E0EA5AFE4F3C
:10074000958F80936F01FF91EF919F918F912F91E2
:100750000F900FBE0F901F9018958081F4CF1F92BD
:100760000F920FB60F9211242F933F934F935F93E5
:100770006F937F938F939F93AF93BF93EF93FF9369
:1007800086E591E00E948C02FF91EF91BF91AF91BD
:100790009F918F917F916F915F914F913F912F9199
:1007A0000F900FBE0F901F90189586E591E00E9464
:1007B000410221E0892B09F420E0822F0895E6E52B
:1007C000F1E01382128288EE93E0A0E0B0E084832F
:1007D0009583A683B7838BE291E09183808385EC38
:1007E00090E09587848784EC90E09787868780ECFB
:1007F00090E0918B808B81EC90E0938B828B82ECEC
:1008000090E0958B848B86EC90E0978B868B118E95
:10081000128E138E148E0895AF92BF92CF92DF92F4
:10082000EF92FF920F931F93CF93DF936C017B01A5
:100830008B01040F151FEB015E01AE18BF08C01736
:10084000D10759F06991D601ED91FC910190F081A9
:10085000E02DC6010995892B79F7C501DF91CF916C
:100860001F910F91FF90EF90DF90CF90BF90AF90CE
:100870000895FB0101900020E9F73197AF01461B75
:10088000570BDC01ED91FC910280F381E02D09947E
:100890006115710511F00C94390490E080E0089521
:1008A000DC01ED91FC910190F081E02D09948F9293
:1008B0009F92AF92BF92EF92FF920F931F93CF93AD
:1008C000DF93CDB7DEB7A1970FB6F894DEBF0FBEAA
:1008D000CDBF7C01FA01CB0119A2223008F42AE035
:1008E0008E010F5D1F4F822E912CB12CA12CBF01C8
:1008F000A50194010E940F05F901CA016A300CF5A7
:10090000605DD8016E938D01232B242B252B79F765
:1009100090E080E0109721F0BD01C7010E943904EA
:10092000A1960FB6F894DEBF0FBECDBFDF91CF9179
:100930001F910F91FF90EF90BF90AF909F908F907D
:100940000895695CDECFCF92DF92EF92FF920F9312
:100950001F93CF93DF932115310581F4DC01ED91D5
:10096000FC910190F081E02D642FDF91CF911F91D8
:100970000F91FF90EF90DF90CF9009942A303105CE
:1009800001F52AE077FF1DC06A017B01EC016DE2F1
:100990000E9450048C0144275527BA014C195D0967
:1009A0006E097F092AE0CE010E945704800F911F33
:1009B000DF91CF911F910F91FF90EF90DF90CF903B
:1009C0000895DF91CF911F910F91FF90EF90DF90ED
:1009D000CF900C9457042115310541F4DC01ED91C1
:1009E000FC910190F081E02D642F09940C94570440
:1009F0009A01AB0170E060E00C94EB0408950E9452
:100A000006020E94FE040E945501CEE7D2E00E9439
:100A100019012097E1F30E947E02F9CF0895A1E227
:100A20001A2EAA1BBB1BFD010DC0AA1FBB1FEE1F68
:100A3000FF1FA217B307E407F50720F0A21BB30BB3
:100A4000E40BF50B661F771F881F991F1A9469F72F
:100A500060957095809590959B01AC01BD01CF018B
:100A60000895052E97FB1EF400940E94480557FD3B
:100A700007D00E940F0507FC03D04EF40C944805E4
:100A800050954095309521953F4F4F4F5F4F0895BA
:100A900090958095709561957F4F8F4F9F4F0895EA
:100AA000A29FB001B39FC001A39F700D811D1124AF
:100AB000911DB29F700D811D1124911D0895EE0F9F
:100AC000FF1F0590F491E02D0994F894FFCF736116
:100AD0006D706C65733A200020203A0028002900D0
:100AE0000A004178206D763A2000202056696E2059
:100AF0006D763A200000000000CE020C046F02AEBA
:080B00000241025B024D0200FC
:107C0000112404B714BE01FD04C003FD24D1802F4C
:107C1000DFD185E08093810082E08093C00088E11D
:107C20008093C10086E08093C20080E18093C4000D
:107C30008EE0FBD0219A86E020E33CEF91E0309388
:107C400085002093840096BBB09BFECF199AA8951F
:107C50008150A9F7EE24FF24AA24A394B5E0CB2EEB
:107C6000A1E1BA2EF3E0DF2ED2D0813461F4CFD07F
:107C7000082FE1D0023829F1013811F485E001C064
:107C800083E0BDD07FC0823411F484E103C0853429
:107C900019F485E0D8D076C0853579F4B8D0E82ECF
:107CA000FF24B5D0082F10E0102F00270E291F2920
:107CB000000F111FC0D0780165C0863521F484E023
:107CC000C2D080E0DECF843609F040C0A0D09FD083
:107CD000082F9DD080E0E81680E7F80618F4F70139
:107CE000D7BEE895C0E0D1E092D089930C17E1F7B8
:107CF000F0E0EF16F0E7FF0618F0F701D7BEE895C1
:107D00009AD007B600FCFDCFA701A0E0B1E02C910E
:107D100030E011968C91119790E0982F8827822B54
:107D2000932B1296FA010C01A7BEE89511244E5F21
:107D30005F4FF1E0A038BF0751F7F701C7BEE895E4
:107D400007B600FCFDCFB7BEE8951CC0843761F4D0
:107D50005ED05DD0082F5BD06ED0F70185917F019A
:107D60004ED00150D1F70EC0853739F464D08EE182
:107D700046D085E944D08FE084CF813511F488E086
:107D800054D059D080E13BD06FCF8EBD0DB407FEEB
:107D9000FDCF8EB50895289885E0F7DF80E0F5DF08
:107DA000289A817008951F93182F662321F086E08A
:107DB00060E0F9DF289AEFDF8823E9F72898812F20
:107DC000E4DF1F910895EF92FF920F931F937B01C1
:107DD0008C0183E060E0E7DFC801AA27BB27D5DF7D
:107DE000BB27A12F902F8F2DD0DF8E2DCEDF80E0EF
:107DF000CCDF289A1F910F91FF90EF900895982F54
:107E00008091C00085FFFCCF9093C6000895199A19
:107E10008091C00087FFFCCF8091C00084FD01C02D
:107E2000A8958091C600199A0895E0E6F0E098E1DF
:107E3000908380830895EBDF803219F088E0F5DFCE
:107E4000FFCF84E1DCCF1F93182FE1DF1150E9F75A
:107E5000F2DF1F9108959F92AF92BF92CF92DF926F
:107E6000EF92FF920F931F93CF93DF9380E0DDDFBC
:107E700084B18D6284B9289A1A9A8CB580658CBDBC
:107E800028988FE982DF80E080DF289A81508E3F3A
:107E900008F092C081E061E086DF80E076DF289A1A
:107EA00060E070E080E090E08EDF863409F084C00E
:107EB00061E070E080E090E086DF8C3409F07CC007
:107EC00062E070E080E090E07EDF883509F074C009
:107ED00066E070E080E090E076DF8A3309F06CC005
:107EE00069E070E080E090E06EDF8A3309F064C002
:107EF00067E070E080E090E066DF082F68E070E007
:107F000080E090E060DF10E0F02EEE2490E0E82AC0
:107F1000F92AE0FC51C0199AC0E0D0E0CC24DD245D
:107F20009924939443E0A42E35E0B32E30C02A96D2
:107F3000BE0180E090E047DF082F10E02196BE01EF
:107F400080E090E02B973FDF90E0982F8827802BF0
:107F5000912BFE010C0197BEE89511242296CE01CB
:107F60008F779070892B19F0CE15DF0581F4F6011B
:107F7000A7BEE89507B600FCFDCFF601B7BEE895B1
:107F800007B600FCFDCF80E890E0C80ED91ECE15E4
:107F9000DF0508F4CCCF199881E187BFE89582E529
:107FA00061E001DF80E0F1DE80E0EFDE80E0EDDE29
:107FB000289A88E03ADFFFCFDF91CF911F910F9190
:107FC000FF90EF90DF90CF90BF90AF909F9008957B
:0C7FD000282E80E02ADFEE27FF2709940E
:027FFE0000057C
:00000001FF
